:10000000F00E00207D5D0000AF2C0000AF2C000042
:10001000AF2C0000AF2C0000AF2C000028B4FEDF96
:10002000000000000000000000000000AF2C0000F5
:10003000AF2C000000000000AF2C0000AF2C00002F
:1000400000000000000000000000000000000000B0
:1000500000000000000000000000000000000000A0
:100060000000000000000000000000000000000090
:100070000000000000000000000000000000000080
:10008000B101353234313744656D6F465700000099
:1000900010B500249C4804709C49002001F0BEFA71
:1000A000002807D0A449012001F0B8FA441EA44159
:1000B000E443E40F200010BD9348704710B5924C04
:1000C0002078401E0CD0401E0ED0401E12D0801E44
:1000D00014D0801E012816D9001F012816D917E058
:1000E00000F02CF902200CE02000E43001F092FC3A
:1000F000032006E000F00CF9042002E000F009FF04
:100100000620207004E001F008F901E001F0D6F9C2
:1001100001F018FA10BD10B57B4C0023A3702171BB
:10012000E0706271002807D00120207000F0B3F861
:100130002000E43001F00CFC10BD10B5724C01231E
:10014000A3702171E0706271002806D0237000F066
:10015000A2F82000E43001F0FBFB10BD01206A4949
:10016000887170476848C078704738B587488849B3
:10017000828E0A4082860124C48702881140018051
:10018000614D2878062802D007282AD031BDFD20ED
:10019000400028180021C182817A01290AD1C17A40
:1001A000002907D1417A002904D10088002801D113
:1001B00002F026FC0720287000F0ACF87548018892
:1001C0000C43048000880006800E8007800F012801
:1001D00004D12800F6300188491C018000F07DF828
:1001E00031BDA87801F05AFC0820287031BD38B51F
:1001F000454CFD2040002518E88A401CE8826648EE
:100200000188664A914203D000884009401C00E002
:1002100000202883A87A012812D1E87A00281BD16F
:10022000687A002818D1288B2988884214D320782E
:10023000072803D0082801D00B2801D102F0E0FBE9
:100240002078001F05D0C01E012815D9401F08D0F6
:100250001EE000F04AFE31BD20780B28F0D10C20C2
:1002600020704A48C249828E0A4082860022C28794
:1002700002881140018031BD01F07CF801F0E8F8FE
:10028000A87A002806D1E98A200001F0B5FC31BD2A
:100290000B20207031BD70B43C48B649C1800A21A2
:1002A00041800222038813430380174B9B8B5B0121
:1002B000FF2464011C40B04BE3189BB2AF4C25886F
:1002C0005D1BAF4EB54201DB24881B1BC380418000
:1002D000818E0A43828670BC704780B50A480089C7
:1002E00000280CD029494001C88002208A8E024390
:1002F0008A860A88104308800A20488001BD0021B0
:10030000FFF733FF01BD000060010020EF01000096
:1003100001E0000000BF1D481F2181800121828E65
:100320000A438286028811430180018804220A431D
:1003300002800521418070476B01000010B5914C8F
:100340000020A0712000E43001F024FBE08B800A43
:100350008D496054A078002804D100F021F800F005
:1003600031F908E06079012801D0022805D100F0B8
:1003700017F800F003FB00F06BFD2079012801D095
:10038000022801D102F0BAF810BD000000010050AF
:10039000FDFF00000003005026040050FF0700008E
:1003A000F8B57A4D28887A490140298000212888AB
:1003B000C206D00F01F0B6F80720724C2988754AA2
:1003C0000A40A18A4909014011432980A18A4909AB
:1003D00001402A88104001F0A5F828886E490140A4
:1003E000A08A40090822104008432880A08AC0053E
:1003F000C10F28880207D00F01F094F86748006801
:10040000406880470100608A4004400C4200101898
:10041000000202F0F5FB624D298880221202114091
:100420004204520C0A432A8081B228884004400CBE
:1004300001F078F868895B49014069816889400961
:10044000C00705D50120A07109210F2002F030FC62
:10045000554F1F2668893840A18A31400143698180
:1004600068893040A18A3140884205D00120A071BE
:1004700009210F2002F01CFCFE35E88C0740E08AC1
:1004800030403843E884E88C3040E18A314088428B
:1004900005D00120A07109210F2002F009FCE88C91
:1004A00042490140E08A720102400A43EA84E88C32
:1004B00040093040E18A49093140884205D0012095
:1004C000A07109210F2002F0F3FB28883849014070
:1004D000A08A4009320102400A432A802888000984
:1004E0003040A18A490A0E40B04205D00120A071D7
:1004F00009210F2002F0DCFB2E4D032628882E490F
:100500000140208B800930400843288028883040F3
:10051000218B89093140884205D00120A071092131
:100520000F2002F0C5FB298824480840218B0906CA
:10053000090F89000C220A4002432A80288880087B
:100540003040218B09090E40B04205D00120A07136
:1005500009210F2002F0ACFB194C1421200002F0FD
:10056000FBFB200014300021002206C0F1BD00007A
:10057000FEFF0000FFFF0000F4040000280200500E
:10058000F10A0000600100201E02000096040050E5
:10059000EFFF0000F8FF0000F7FF0000040000205C
:1005A00004030050DFFF0000E0FF00001FFC00001C
:1005B0000FFE000000060050FCFF0000F3FF0000EB
:1005C000480B0020F8B5364C6079012805D000D2E0
:1005D000B7E1032819D00CD3F1BD27002037200044
:1005E000A230418C4901FF2252010A40A281408C75
:1005F00016E0270036372000A230818C4901FF2207
:1006000052010A40A281808C0AE027004C3720006A
:10061000A230C18C4901FF2252010A40A281C08C44
:10062000010A02D1C748E08103E0FF21090201402D
:10063000E181C54D2888C5490140298028880126C7
:10064000C005800F04D0A67109210F2002F030FBF5
:100650002888BF490140B8784006400E08432880EA
:1006600028884006400EB9784906490E884204D0D1
:10067000A67109210F2002F01BFBA220205A000ABC
:1006800030420FD0B3480068406880470100388886
:100690004004400C42001018000202F0B1FA04E0DD
:1006A0006001002038884004400CA988F203114002
:1006B0004204520C0A43AA80A9884904490C80B21A
:1006C000814204D0A67109210F2002F0F1FAA24D57
:1006D0002888B102014329802888800A304204D149
:1006E000A67109210F2002F0E3FA288808210143AE
:1006F00029802888C008304204D1A67109210F2022
:1007000002F0D6FA2988954808407988490872028B
:100710001140014329802888400A30407988890A9D
:100720003140884204D0A67109210F2002F0C0FA9E
:10073000298B8B4808407988C90A08221140014357
:100740002983288BC00830407988890B3140884242
:1007500004D0A67109210F2002F0AAFA298B814842
:10076000084079888904490F01432983288B400771
:10077000400F79888904490F884204D0A671092165
:100780000F2002F095FAE98B77480840B9880906EE
:10079000C90FC9010143E983E88BC0093040B9881A
:1007A000C9093140884204D0A67109210F2002F006
:1007B0007FFA7F20EA8B664911407A8A120A02404A
:1007C0000A43EA83E98B01407A8A120A1040814287
:1007D00004D0A67109210F2002F06AFA288CF021BA
:1007E00009020140F8880005000D08432884288C80
:1007F0000005000DF9880905090D884204D0A6718D
:1008000009210F2002F054FA288E54490140388AF9
:100810007202104008432886288E400A3040398AE8
:10082000490A3140884204D0A67109210F2002F004
:100830003FFA288E4D490140388AE022520002409A
:100840000A432A86288EC005400F398AC905490FF8
:10085000884204D0A67109210F2002F029FA298EBE
:1008600043480840398A0906C90EC90038220A409F
:1008700002432A86288E8006400F398A8906490F4E
:10088000884204D0A67109210F2002F011FA288EA7
:1008900034490140387C4007400F08432886288EA1
:1008A0004007400F397C4907490F884204D0A671A0
:1008B00009210F2002F0FCF90720EA8F2D49114091
:1008C0007A8A1206120F072313401A010A43EA8795
:1008D000E98F0A06120F072111407A8A1206120FB9
:1008E0001040814204D0A67109210F2002F0E0F9E6
:1008F000E98F1D480840798A0906C90FC9010143DB
:10090000E987E88FC0093040798AC90931408842B7
:1009100004D0A67109210F2002F0CAF90F20E98F37
:10092000154A0A40798A01401143E987E98F01405D
:100930007A8A1040814204D0A67109210F2002F06A
:10094000B7F9F1BDFFFF0000020300507FFE000079
:1009500080FF00000400002002040050FFFD0000A2
:10096000F7FF0000F8FF00007FFF00003FFE0000DF
:10097000C7FF00008FFF0000F0FF0000F8B52F4C0C
:100980006079012802D002280CD0F1BD270062371F
:100990002000A230018D4901FF2252010A40A281AC
:1009A000008D0AE027007E372000A230418D4901EA
:1009B000FF2252010A40A281408D010A02D1204843
:1009C000E08103E0FF2109020140E181388B000B47
:1009D0006081794800881B4901408020084376499E
:1009E000088008880126C005800F012804D0A67160
:1009F00009210F2002F05CF9A220205A000A30429F
:100A000024D011480068406880470100C025AD002F
:100A100038884004400C684302F0F2F86946488088
:100A20000948006840688047010078884004400C0D
:100A30004543280002F0E4F869460FE06001002019
:100A4000FFFF00007FFE0000040000203888400403
:100A5000400C6946488078884004400C0880F503C3
:100A600055488088284049884904490C0143524828
:100A7000818080884004400C69464988884204D0BF
:100A8000A67109210F2002F013F94B48C0880540D8
:100A9000684600884004400C28434749C880C888FD
:100AA0004004400C69460988884204D0A671092197
:100AB0000F2002F0FDF8C84D2888C8490140298060
:100AC0002888C00A304204D0A67109210F2002F004
:100AD000EFF8E888D8490140E980E888000B304207
:100AE00004D0A67109210F2002F0E2F8E888D3496A
:100AF0000140E980E888400B304204D0A67109210A
:100B00000F2002F0D5F87F202B490988CC4A0A40F3
:100B1000F98801401143284A118011880140FA8860
:100B20001040814204D0A67109210F2002F0C0F8C4
:100B300021480188C3480840F9888900C022D200B2
:100B40000A4002431C4802800088C004000FF98854
:100B5000C905890F884204D0A67109210F2002F02F
:100B6000A7F815480289FF21090211403A790A4382
:100B700002810089C0B23979884204D0A671092166
:100B80000F2002F095F82988AF480840F988090934
:100B900072021140014329802888400A3040F988B8
:100BA000490B3140884204D0A67109210F2002F080
:100BB0007FF8E988A54801E0020300500840B988A1
:100BC0008908FC2212010A400243EA80E9883F209A
:100BD00089090140BA88120A1040814204D0A671E6
:100BE00009210F2002F064F8388928812889398981
:100BF000884204D0A67109210F2002F059F87889A3
:100C0000688168897989884204D0A67109210F20FA
:100C100002F04EF8B889A881A889B989884204D021
:100C2000A67109210F2002F043F8F889E881E889CC
:100C3000F989884204D0A67109210F2002F038F802
:100C4000388A2882288A398A884204D0A6710921E4
:100C50000F2002F02DF8788A6882688A798A8842A3
:100C600004D0A67109210F2002F022F8B88AA882C8
:100C7000A88AB98A884204D0A67109210F2002F0FF
:100C800017F8F88AE882E88AF98A884204D0A671BF
:100C900009210F2002F00CF8A88EA4490140388BDE
:100CA000320210400843A886A88E000A3040398BD3
:100CB000090A3140884204D0A67109210F2001F0B1
:100CC000F7FFA98E9A480840398B0906890F8901D8
:100CD0000143A986A88E0006800F398B0906890F6B
:100CE000884204D0A67109210F2001F0E1FFA98EEE
:100CF00090480840398B0906C90EC90038220A40BD
:100D00000243AA86A88E8006400F398B8906490FB8
:100D1000884204D0A67109210F2001F0C9FFA88ED6
:100D200085490140387E4007400F0843A886A88EB9
:100D30004007400F397E4907490F884204D0A67109
:100D400009210F2001F0B4FFE88E78490140388B6B
:100D5000320210400843E886E88E000A3040398BA2
:100D6000090A3140884204D0A67109210F2001F000
:100D70009FFFE98E6E480840398B0906890F89016B
:100D80000143E986E98E0320890901403A8B9209E3
:100D90001040814204D0A67109210F2001F088FF84
:100DA000E98E64480840398B0906C90EC90038220B
:100DB0000A400243EA86E88E8006400F398B890696
:100DC000490F884204D0A67109210F2001F070FF5D
:100DD000E88E594904E000BF02040050FFF700000C
:100DE0000140387E4007400F0843E886E88E400700
:100DF000400F397E4907490F884204D0A671092166
:100E00000F2001F055FFE98FA9480840398B4909A7
:100E100070220A400243EA870720E98F090901404E
:100E20003A8B520A1040814204D0A67109210F204A
:100E300001F03EFFF1BD00BFFFEF0000FFDF00004B
:100E400080FF0000FFE10000FFFD00003FF0000018
:100E5000F8B5984C608CF0210902014061840720AC
:100E6000954D6188344A0A40E98BC9090140114314
:100E70006180618801270140EA8BD20910408142DC
:100E800004D0AF7109210F2001F012FF7F26E08B03
:100E9000C7490140E88B30400843E083E08B304095
:100EA000E98B3140884204D0AF7109210F2001F055
:100EB000FFFE208838432080BE480188BC4A0A4093
:100EC00002800088304204D0AF7109210F2001F068
:100ED000EFFEFF200002618F0140AA8B120A0A4335
:100EE0006287E18F0840E087F1BD10B5724C2000A9
:100EF00000F0A3FD01280BD1AF48B049828E0A4013
:100F000082860022C287028811400180052020705D
:100F100010BD80B568488078002802D100F00EF836
:100F200001E000F04DF900F0B7F901BDFFFE00004F
:100F30003FFF0000C7FF0000F8FF0000F8B55E4C5F
:100F40006079012805D000D2B0E0032807D003D390
:100F5000F1BD2000203004E02000363001E0200008
:100F60004C3000907F2793480088914901400098B9
:100F70004088384008438F490880088838400099E5
:100F800049883940884205D00120A07109210F20ED
:100F900001F08EFEBE4D07262988BE480840009904
:100FA0004988C90931400143298028883040009987
:100FB0004988C9093140884205D00120A071092122
:100FC0000F2001F075FEA98B794808400099498AE5
:100FD000090A39400143A983A88B38400099498AFE
:100FE000090A3940884205D00120A07109210F204B
:100FF00001F05EFEFF200002298F0140009A127A64
:101000000A432A87A98F0840A887009800F056F85D
:1010100000984188C809304228D13940082910D2A7
:1010200028889C49014004200843288028880640DD
:10103000042E1BD00120A07109210F2001F038FEE1
:1010400014E094481C29298808D20840052101434E
:10105000298028880640052EECD107E008400621AB
:101060000143298028880640062EE3D1E078401EFF
:10107000012802D9801E03D0F1BD0098808A10E0BB
:101080004C4801884A4A0A4002800088384205D00C
:101090000120A07109210F2001F00AFE0098808A2A
:1010A000C0090740A089400938182081F1BD00001F
:1010B0008FFF0000000400506001002070B50400A4
:1010C000AB4D20794006400E28830126A088C00938
:1010D0003040E882A088000AA882E0880005000D60
:1010E00068832089000A28806189090A401868807D
:1010F000A189090A4018A880E189090A4018E880F6
:10110000A07A217A814207DAEE816189080A4001DA
:10111000C9B2227A891A09E088420BDAFF20E881F5
:101120006189080A4001227AC9B2511A89B201F0D4
:1011300067FD01E00020E8812881207BA17A8142BF
:1011400007DA2E82A189080A4001C9B2A27A891A57
:1011500009E088420BDAFF202882A189080A4001B1
:10116000A27AC9B2511A89B201F04AFD01E0002009
:1011700028826881A07B217B814207DA6E82E18927
:10118000080A4001C9B2227B891A09E088420BDAB9
:10119000FF206882E189080A4001227BC9B2511A06
:1011A00089B201F02DFD01E000206882A88170BDA8
:1011B00080FF00000203005000010050FEFF00000D
:1011C000F8B5A14C6079012802D0022803D0F1BD06
:1011D0002700623701E027007E379C4E7F2530884C
:1011E000B5490140F88828400843308030882840BD
:1011F000F9882940884205D00120A07109210F20DB
:1012000001F056FDE078012804D040D303282AD00D
:1012100013D3F1BD0F20F988490A0140718171890A
:10122000FA88520A1040814205D00120A07109219C
:101230000F2001F03DFD788B24E00F20F988490A4A
:101240000140CA4372817189FA88520A1040C24330
:1012500092B2914205D00120A07109210F2001F026
:1012600027FD788B0EE0308893490140318030882B
:10127000284205D00120A07109210F2001F018FD9E
:10128000788BC0090540A089400928182081F1BD4C
:1012900002040050F8FF000070B56B4C26009A362F
:1012A000A64D03202A88A649114032881206D20E84
:1012B0000240D2000A432A8029880906C90E01404B
:1012C00032881206D20E1040814205D00120A07152
:1012D00009210F2001F0ECFC07202988B04A0A40C0
:1012E000318801401143298029880140328810400B
:1012F000814205D00120A07109210F2001F0D8FC06
:101300007088688068887188884205D00120A07143
:1013100009210F2001F0CCFC70BD10B54A4CA1484A
:101320000188A14A914203D00088E189884202D312
:101330000B20207010BDE078032818D09B4801884E
:101340000907890F01290AD1008A000703D5032163
:101350000F2001F0ADFC200000F0F7FB04E000F0EE
:1013600002F90120F0216054200000F016FC10BDAD
:10137000480B002030B48E498E48828A0B889A42EE
:101380001AD18D4A13888D4C1C40C38ADB018025FD
:101390002B40234313801388474C1C40037E5B067D
:1013A0005B0E234313805388F02424021C40438B9C
:1013B0001B051B0D23435380098802888A420DD1E7
:1013C0007D49CA8BFF231B021340827B1A43CA83C9
:1013D0008A8BFC231B021340008920E042888A424A
:1013E0000DD17549CA8BFF231B021340027C1A439F
:1013F000CA838A8BFC231B02134040890FE082883A
:101400008A4211D16C49CA8BFF231B021340827C94
:101410001A43CA838A8BFC231B02134080898005F0
:10142000800D184388830DE0C08888420AD1624845
:10143000C18BFF2212020A40C283818BFC2212025E
:101440000A40828330BC70476001002002030050D4
:1014500010B55B4953480288534B9A4203D0028827
:10146000CB899A4202D30B20087010BDCA78032A98
:101470000FD04E4A13881B079B0F012B05D10A0082
:10148000F63213885B1C138003E053884D4C1C40DC
:1014900054808422920089180A78D206D20E1F2A1C
:1014A00009D1C089897B0006800E814203D20B21BD
:1014B0000F2001F0FDFB10BD80FF000038B5404C4F
:1014C0002079002801D003280BD13F483F49828E64
:1014D0000A4082860022C287038819400180227058
:1014E00008E0BA20205A002803D020780C2801D127
:1014F000002020702D4D2888022101432980344985
:101500003148828E0A4082860122C28702881140B9
:10151000018000F0C7FB68882A49014069800020EB
:10152000A07131BD884200D1704780B501202449A7
:10153000887109210F2001F0BBFB01BD7E04005022
:10154000E7FF000000201E498A79012A00D0704779
:1015500080B50B2008701F480088002801D100F0DA
:1015600002F8012002BD38B501241B4D2888000671
:10157000800E204203D004210F2001F099FB28881F
:10158000C00703D505210F2001F092FB2888000633
:10159000400E204203D006210F2001F089FB31BD0F
:1015A000F8FF000026040050FFFF00000003005079
:1015B00070030020480B0020200400507FFF000033
:1015C0006001002080FF000000010050FEFF0000CD
:1015D000FDFF0000020500501003005010B50C4C38
:1015E00000220C49200001F0F2FB02211320626A64
:1015F000904709481F21818017210181028801231A
:10160000134303804181018802220A43028010BDF6
:10161000285E0000640B00200001005080B502002D
:101620000020002A02D0012A03D1012001F0AEFBE4
:10163000012002BDF8B504006ED0C44804608027C4
:101640007F00394D288838432880FF2636022888B5
:1016500030402880A06888218900401801F0D0FB24
:10166000E880688838436880688830406880A0686F
:1016700088218900401801F0C3FB2881A88807430E
:10168000AF80A8880640AE80A068A62189004018D7
:1016900001F0B6FB6881B949042001F0D1FB0028B4
:1016A0001AD0B749052001F0CBFB002814D0B5496A
:1016B000092001F0C5FB00280ED0B3490A2001F033
:1016C000BFFB002808D0B1490B2001F0B9FB441E34
:1016D000A441E443E40F00E00024AD4801888022E7
:1016E00092000A43028001888022D2000A430280CD
:1016F0000188802212010A430280C4480088800ABF
:10170000810008184000B02189004018C0494843B2
:1017100080128E49486005E0002403218E2040009D
:1017200001F0FEFA2000F2BD42040050F0B583B093
:10173000040000D1EFE0854D2868002800D1EAE0E0
:1017400080688821890046180096029678314018F2
:101750000190200000F0CEFA286881680800E4308B
:101760000278012A00D0D1E04278002A07D1200077
:1017700000F0DCFA012029688968E52224E0CA78B3
:10178000032A27D0427B002A02D0437D002B21D19F
:10179000017B012900D0B9E0002A07D1200000F028
:1017A000FFFA012029688968F1220DE0017D0129F5
:1017B00000D0ABE0407D002808D1200000F023FBE2
:1017C000012029688968F9228854A8E00321B32000
:1017D0004000A2E0822080000F18387801280ED146
:1017E000787901280BD1200000F048FB2868806838
:1017F0008221890040180021017041718FE08878B2
:10180000002800D18DE0012000904B8985208000C8
:101810000A18398A029800F05BFC06002868806884
:10182000012100914389BF494218091D415A01987D
:1018300000F04EFC0700002E42D02868002F11D087
:101840008168852292008918019A4B885E00F318FE
:101850005B00D25A029B09884E0071184900595A00
:101860008A422FD38068852189004318029A00217B
:10187000200000F0E1FB2868806801210091438985
:10188000852189004218091D415A029800F020FC68
:10189000C019012830DB012031E0B88A824248D2E9
:1018A000521C3A823DE03100200000F07DFB2868A8
:1018B00080688521890040180188491C01802EE03C
:1018C000002F23D02868806896494318019A012187
:1018D000200000F0B1FB2868806801210091438955
:1018E00090494218091D415A019800F0F1FBC019B6
:1018F000012803DB012002E0002000E000206179E4
:10190000EF220A4000011043607108E0A079F02145
:101910000140A17103E00321B44801F001FA03B0D2
:10192000F0BD3A8A8820800008189300C05A002829
:10193000B3D1B8899042E9D2AD480088C009C00748
:10194000B1D40099200000F0CFFAB0E7CC0B002012
:1019500080B500280CD000210173417301704170E3
:10196000017541759222520080180170417101BDCC
:101970000321A04801F0D4F901BD00001D210000A1
:101980005321000099210000C7210000D32100004D
:10199000B404005080B5002832D095490A88C04B65
:1019A00013400B80FF2212024B8813404B808B8820
:1019B00013408B80CB881A40CA8096214900421878
:1019C00000219180D1801181518111804182C1819A
:1019D000018241830183C18201814181C180FF2253
:1019E000263282189170D1705170917111705171BD
:1019F000B421C9009E225200801801F0ADF901BD4A
:101A000003219620800001F08BF901BDF800004809
:101A1000B3FDFFFF10B504000AD000F085F8608028
:101A20000521012001F027FA00F0DCFBA08010BDA9
:101A30000321BB4801F074F910BD70B500240028E3
:101A400026D0AB490988CAB20100E4314B899D1800
:101A500080267601B54201D3731E00E09B184B81AE
:101A6000838B1B0A934206D20A89FF2A01D2521C99
:101A700000E0FF220A81CA88521CCA80007F93B20C
:101A8000834202D292B2FF2A06D301240C7003E0F3
:101A90000321C04801F044F9200070BDA149096844
:101AA000002900D1704710B4020019D132209E4A9B
:101AB0001388FF2424021C40044314801388B64C6E
:101AC0001C4014808968872292008852B348002104
:101AD00041810121418102214181032141811EE097
:101AE00001281CD13C22FF231B028F4884881C4004
:101AF00014438480448823401343438088688721AB
:101B000089004252A5480421418105214181018873
:101B100010220A430280018820220A43028010BC5E
:101B2000704700001602000010B50121012001F0ED
:101B3000A2F904009A38FF21CE31884203D3002154
:101B40000F2001F0B5F8200010BD10B504001FD023
:101B50000221012001F08FF92100F2310A88002AC8
:101B600001D1088000E04880618B8905890D884299
:101B700006DABE48018802220A430280022103E0FD
:101B8000BB49884208D303210F2001F091F810BD12
:101B90000321B84801F0C4F810BD10B5002820D0CA
:101BA0000121B54A13889B0A0B420CD00300F8337D
:101BB0009C88002C07D19488A406A40EDC80D488CD
:101BC000A405A40D9C8013895B0B0B420DD0F8304B
:101BD0004388002B09D11289D204D20C42800170B3
:101BE00010BD0321BE4801F09BF810BD02020000A9
:101BF0004004005021020000F8B584B0002849D00C
:101C0000BB294BD1B7498A8803920A8902928A89F3
:101C1000CB8801934B890093CB890C882406640FF1
:101C200033D0039D002D30D0FA25ED00019EAE4249
:101C30002BD28226B6008619019FFF10B770022CA6
:101C400023D3029C039FBC421FDA009C019FE41B2C
:101C5000A4B2AC4219D209880906C90E890701D17C
:101C6000012171700099019C091BC910F170029942
:101C70008A420ADA009A991A89B2A94205D2012148
:101C800071700099591AC910317101218222920094
:101C9000815403E00321BD4801F042F805B0F0BDD6
:101CA000F0FF00003D480188B94A0A4002800188DF
:101CB000B84A0A4002800188B74A0A400280018877
:101CC000B64A0A4002800188B54A0A40028001886B
:101CD000B44A0A400280FF20000213490A880240E9
:101CE0000A804A8802404A808A881040888070476B
:101CF0002404005080B500280CD0002141710171EE
:101D0000C170817041708179CF220A401021114346
:101D1000817101BD0321C64801F002F801BD000038
:101D20007F020000CC0B00204204005070B5002858
:101D30002AD0C04909688A68EC23D25A42708A685E
:101D4000EE23D25A82700F228B68EE241B5B1C0A92
:101D50001440F023C5781D402C43C4708D68E626DE
:101D6000AD5B22402C011443C4708A68925B9205DB
:101D7000920E02718968E822895A417181790B407B
:101D800001211943817170BD0321CF4800F0C8FFC4
:101D900070BD0000CE020000FFFE0000B404005041
:101DA00038B500282AD0A34909688A68F223D25A94
:101DB000427003228B68F2241B5B1C0A032323401E
:101DC0008478FC2525402B4383708C68F425645B64
:101DD0001A40A300134383708A68525B9205120F66
:101DE000C2708968F622895A017100214171817996
:101DF000F0220A4002211143817131BD0321B34811
:101E000000F08EFF31BD38B5002829D08949096816
:101E10008A68FA23D25A42708A68D25A120A8270A9
:101E20008A68FC23D25AC27003228B68FC241B5B95
:101E30001C0A032323400479FC2525402B4303710E
:101E40008968FE24095B03241C4089002143017139
:101E5000002141718179F0230B401A43827131BD19
:101E60000321C94800F05CFF31BD000000030050B1
:101E700067020000930300002804005010B50028FA
:101E800028D06C4909688A68C04BD25C4379FD242C
:101E90001C405200224342718B68BD4C1B5DFE24E6
:101EA0001440234343718A68BA4BD25C02718A683A
:101EB0005B1CD25CC2708A685B1CD25C82708968D1
:101EC000DA1C895C41708179F0220A4006211143B5
:101ED000817110BD0321C24800F022FF10BD000037
:101EE000C70300007E040050F8B50023002200283C
:101EF00046D0002944D04F4C2468A5688526B600FA
:101F0000AE5BB6008E5BAD89AE4200D3721B4270F1
:101F10001204120E82708A1CA5688526B600AD5B7D
:101F2000AD00525BC2703F258A1CA6688527BF00A2
:101F3000F65BB600925B120A2A400679C02737404A
:101F40003A430271891CA6688527BF00F65BB6007C
:101F5000895B890B1540890129430171A168C91961
:101F60008A88002A04D00988521E914200DA01238F
:101F700043718179F0220A40042111438171F1BD3E
:101F80000321A54800F0CCFEF1BD00001E040000B6
:101F9000FEFF0000FDFF0000FBFF0000F7FF000058
:101FA000EFFF0000DFFF000070B5002200230028D3
:101FB00037D0002935D0994C2468A5688526B6000D
:101FC000AE5BB6008E5BAD89AE4200D3731B43702F
:101FD0001B041B0E83708B1CA5688526B600AD5BA9
:101FE000AD005B5BC3700379C0251D400571891C82
:101FF000A3689B5B9B00C95A890B89010171A16889
:1020000089198B88002B04D009885B1E994200DA5D
:10201000012242718179F0220A4007211143817126
:1020200070BD0321A320C00000F07AFE70BD000047
:1020300054040000CC0B0020F8B5002400283DD04B
:10204000002A3BD0002B39D0744D2D68AD68AD8986
:102050001E887700BE197600965BAE4200D3741BD3
:1020600044702404240E8470941C1D886E0075191D
:102070006D00645BC470941C1D886E0075196D0042
:10208000645B240A04711C8865002C196400121911
:1020900012791207120F4479D02525402A434901AD
:1020A00011438906890E41718179F0220A40052188
:1020B000114381711888401C1880F1BD03215848D4
:1020C00000F02EFEF1BD0000710400008E0400003F
:1020D00070B50024002817D0002A15D015888D422D
:1020E00017D2049D1C00012D15D113885E00F51830
:1020F0006D0045192D792D072D0FA5420BD28B426E
:1021000009D25B1C1380F0E70321AF20C00000F070
:1021100007FEA0B270BD10880C1AFAE780B53F48E0
:102120000068002810D08068862189004018018846
:102130008288914202D0491C018001BD3948018842
:10214000394A0A40028001BD0321384800F0E8FD09
:1021500001BD10B531490968002910D08968344A99
:1021600089180A882F4B4C88A24203D0521C0A803F
:10217000588110BD18882F490140198010BD0321D6
:102180002D4800F0CDFD10BDAA040000090200009A
:102190000E0200000A02000022480188274A0A4075
:1021A00002800188264A0A4002800188254A0A40A6
:1021B00002800188244A0A40028074380188234A38
:1021C0000A400280704717480188174A0A40028077
:1021D000704714480188174A0A400280704700007F
:1021E000C604000010B51A4909888905890D401AEE
:1021F00000B20A49496841438C12413424B2A62CEA
:1022000001DBFF2402E0002C04D5002401210F2073
:1022100000F04EFDE0B210BDEF040000CC0B00203A
:1022200046050000B4040050EFFF00009D050000CB
:102230001A020000DFFF0000BD050000FEFF0000E5
:10224000FDFF0000FBFF0000F7FF0000F0FF0000B3
:10225000F800004870B4A64900230B804B808B80A7
:10226000CB80A448FE2252008218C42464000419C2
:10227000957A002D14D12388CB818B0DC3189C8CAB
:102280008C811B884B8180235B00C018808B088168
:102290002020088048808880C8800120907193E0C9
:1022A0005579002D11D101255571E5688035E5601E
:1022B0000D816569803565614D81E5698035E56130
:1022C0008D81656A803565620FE05371A568803540
:1022D000A5600D812569803525614D81A569803511
:1022E000A5618D81256A80352562CD811488641CA5
:1022F00014805588A4B2A54253D156310C88640489
:10230000640C0C800121D171537251884905090C6C
:10231000BA22825A80235B00C41807231A4204D0D1
:1023200065684E00AE19266006E0D8256D00451997
:102330002560D9256D004519E560D5081D4204D0FA
:10234000A56A4E00AE19666206E0D8256D004519F3
:102350006562D9256D0045192563A0246400041920
:1023600095091D4204D0E5684E00AE19A66006E04E
:10237000D8256D004519A560D9256D004519656101
:10238000520A1A4204D0206B49004118E16206E06B
:10239000D82149004118E162D92149004018A063C1
:1023A00012E0FF2212022020CB8813400343CB808F
:1023B0008B88134003438B804B88134003434B802F
:1023C0000B881A401043088070BC704738B500284D
:1023D00000D181E0474A80239B00D1548379CF24E8
:1023E0001C40202323438371012938D1F021194057
:1023F00001230B43837100210171C1708170417011
:10240000B4235B00D318C6246400145D012C0FD1E3
:102410001C695D68A5420BD3BA25555B2D056D0F70
:1024200006D02488250A0571C4701C69A41C1C618F
:102430001B78012B4DD1A2235B00D3181C695D686A
:10244000A54246D3BA25525BD205520F41D021880E
:102450000A0A827041701869801C186131BD022916
:102460003FD1F021194002230B43837100210171F8
:10247000C1708170417090235B00D318A224640066
:10248000145D012C0FD11C695D68A5420BD3BA25E0
:10249000555BAD066D0F06D02488250A0571C47002
:1024A0001C69A41C1C611B78012B12D180235B00CA
:1024B000D318DC681D68A5420BD3BA25525D5207BC
:1024C00007D021880A0A82704170D868801CD860C1
:1024D00031BD8170417031BD0521FF207A3000F09F
:1024E0001FFC31BD80B504490F2000F0A9FC01BDDF
:1024F0005E0400506001002055220000F0B589B054
:10250000BC48BD4909890140BB4A1181D1880140BD
:10251000D180918801409180518808405080FF20EF
:102520000002118901401181D1880140D180918838
:102530000140918051880840508084214900CB4857
:1025400000F00AFCCA48009000200099C872009967
:102550004873C84801884A05520DC74B9B895B09DF
:10256000D218C64B9A4202D2009B5A8001E0009AD0
:102570005380CA0A072107231340052B06D80123DD
:1025800007241440A340009A138002E00122009B1C
:102590001A80009A1288202A04D20022B84B1A808E
:1025A000012200E00022009BDA7302AA00231360DC
:1025B000B44B00241C70B44C04940024049D2C7073
:1025C000B24C01940024019D2C70B14C0394002462
:1025D000039D2C7045880D4210D007262E40042EF6
:1025E0000CD8854C2788AB4E3E406D1EAD07AD0F15
:1025F000354325800125012415701D704388DD08B1
:102600000D4214D00D40042D11D87B4D2F88A24EC1
:102610003E401B06DB0E5B1E1B069B0D0C271F405E
:1026200037432F80641C01235370049D2B70438813
:102630009D090D4214D00D40042D11D86E4D2F88E8
:10264000964E3E401B069B0F5B1E1B061B0D302744
:102650001F4037432F80641C01239370019D2B7012
:102660004088430A0B4212D0194004290FD862480F
:1026700005888B4929405B1E1B069B0CC0251D400D
:102680000D430580641C0120D070039908700098E8
:10269000008801280AD10099887396208000A1B291
:1026A00000F0AEFA40090099C88002E000200099CD
:1026B0008873002070498978002901D1642002E0E4
:1026C000012900D17820B4218900091A07AA002322
:1026D000002528C2A4B2641E05D0641E06D0641E64
:1026E000012C0BD915E06946888312E007AA1080F7
:1026F00010880904490C401850800AE007AA10808D
:102700000804800C11880918518009189180081854
:10271000D080002402A8584A11460423B74D0495DE
:1027200006940593544B07AC069D6D00645B6400F2
:102730001B1901938824A4001B19802464000C1920
:10274000C8256D0055190678012E20D12B60E38332
:102750002E686661009EB67B012E019E04D1F02793
:102760007F00F6196E6006E09827BF00F6196E60CC
:10277000A6836D68A561019DA826B600AD192560E8
:10278000E5606360069B5B1CDBB2069309E0636156
:10279000A361049BE383049BA383049B2B60049BA2
:1027A0006B6024310832401C059B5B1E0593B9D138
:1027B0000121002002AD304C9F4AA21805926A46C2
:1027C00011710490002601210020049A032A15D2D9
:1027D0000B0013D0284BD700BF18BF00DB1994277C
:1027E0007F00DB59002B01D018000021521CD2B20F
:1027F000ECE700BFFFFE00005C040050002800D1A1
:1028000005988421490061180860287801280CD1B6
:1028100068460079002808D06A461671802040007A
:102820002018039A5066039881660498401C04900F
:1028300024346D1C0428C6D3009846727F4803993F
:10284000496841810399C968818103994969C181B6
:102850000399C969018201200099087378480188A9
:10286000802212020A43028009B0F0BD60020020FB
:10287000580300201802002060010020FF0700001C
:10288000EC0B002080020020A4020020C8020020DF
:10289000EC020020FCFF0000F3FF0000CFFF00006F
:1028A0003FFF0000FCB4674A107B012800D088E09D
:1028B000507B012800D084E0D07A002800D080E04E
:1028C000907A01287DD1002090721188907B002899
:1028D00077D1D07B012874D15B4B188C5C8C1C8425
:1028E0005884D8699C69DC619861BC4C208C658CEB
:1028F00025846084E069A569E561A061B84D288CF4
:102900006E8C2E846884E869AE69EE61A861B54872
:102910000090808B009EF68B009FBE83009EF0830C
:1029200000988069009E7669009FBE61009E70617C
:102930000020AD4E01962E78002E0BD0009EB66979
:102940004700F65B009F3F683E80009E3668B61CDD
:10295000009F3E602678002E07D0EE694700F65BA8
:102960006F683E806E68B61C6E601E78002E07D0C1
:10297000E6694700F65B67683E806668B61C66607D
:10298000019E3678002E07D0DE694700F65B5F684F
:102990003E805E68B61C5E60019E766E3668019F62
:1029A000BF6E3F68BF1EBE420DD2904E36780B2ED2
:1029B00009D00C2E07D0002E05D0401880B2202858
:1029C000B9D3F3BC70471E4801884904490C018003
:1029D000507B0128F5D1D072002050738448FF212C
:1029E0000902C2880A40C28082880A4082804288E6
:1029F0000A404280028811400180E2E71003002073
:102A00007B482021FF221202C38813400B43C3805E
:102A1000838813400B438380438813400B434380D8
:102A200003881A40114301800F2072490880012059
:102A30007149087070470000BE0700005C04005038
:102A4000B404005058030020C8020020F0B585B03F
:102A5000040000D1BBE0002060712071E070A07024
:102A600060702021A279C02313400B436A46137083
:102A7000A3715E4D0A01AA18D378012B00D0AAE0F9
:102A8000E523EF5C2B00E5331B7B6E4673702B0058
:102A9000E5331E7D2B79022B16D12000FEF746FE72
:102AA000A079000700D096E0012F00D093E068469F
:102AB0004078012801D1012E03D0E878032800D006
:102AC00089E00120287186E01379012B00D082E093
:102AD0000023049003900290C6267600AE5D012E7E
:102AE00012D1B4267600AE1976680196B426760027
:102AF000AE193669019FBE4206D2B4267600AE19E1
:102B0000B668BE4200D00123B4267600AE5D012E29
:102B100013D1A2267600AE1976680196A226760019
:102B2000AE193669019FBE4207D2A2267600AE19C1
:102B3000B668BE4201D001260496A2267600AE5D9C
:102B4000012E13D190267600AE1976680196902654
:102B50007600AE193669019FBE4207D290267600F4
:102B6000AE19B668BE4201D00126039690267600C3
:102B7000AE5D012E0AD1CE00AE193568F768AF42BE
:102B800004D27668AE4201D001250295039E029DD3
:102B90003543049E1E43F3B22B4204D01078012823
:102BA00007D0012106E0360601D0012102E02D0602
:102BB00004D002212000FFF709FC0CE06B461B78D3
:102BC000CF251D402943A171D070908003E00121E1
:102BD0000A4800F0A5F805B0F0BD0000A4020020EE
:102BE0008002002060020020EC0200206001002032
:102BF0005E040050BE04005065030020AB030000DB
:102C00000022030A8B420BD203098B4219D24308DC
:102C10008B422ED2411A00D20146524110467047D3
:102C2000FF2209023FD012068B4205D3121209027D
:102C30008B4201D31212090203098B4219D300E01F
:102C4000090AC3098B4201D3CB01C01A524183093F
:102C50008B4201D38B01C01A524143098B4201D3ED
:102C60004B01C01A524103098B4201D30B01C01A18
:102C70005241C3088B4201D3CB00C01A5241830892
:102C80008B4201D38B00C01A524143088B4201D3BF
:102C90004B00C01A5241884200D3401A5241CFD251
:102CA00001461046704708B500F01AF908BDFEE766
:102CB00010B40F2805D01F4A1388012484401C43F8
:102CC00014800F2905D01B48428801238B401343F1
:102CD000438010BC704717498A88012383401343FF
:102CE0008B8070471349088800220A807047114979
:102CF000488800224A8070470E49888800228A80CE
:102D000070470C480188002901D1408803E0012068
:102D1000704708488088401E8041C043C00F7047FC
:102D200000B54018FF21FFF76BFF0020C043814230
:102D3000FDD100BDDC0B00201206130A1A43130C50
:102D40001A4300BF094205D0830707D00270401C18
:102D5000491EF9D1704700000022FFE71300103927
:102D600006D330B41400150010393CC0FCD230BC7E
:102D7000490700D30CC000D504C0890002D30280EB
:102D8000801C002900D502707047000038B505008E
:102D90000C00132000F0DFF8042D03DA002801D026
:102DA000A900445031BD38B5134DAC88E4B2042CB1
:102DB0000CDA132000F0CFF8A1004258AC801100CB
:102DC00003D001692000904731BD2C8031BD10B582
:102DD00004000FD0208881235B0098420AD100298B
:102DE00008D00A610A0005491320E36898471320B8
:102DF0006169884710BD00003A010050A72D00000E
:102E000010B50400E0200006201880214905884202
:102E100004D3002404215520FFF782FFA0B210BD87
:102E200010B5054C00220549200000F0C8F9012129
:102E30001420626A904710BD285E0000040B002039
:102E400002000020102A00DB704780B5100000F05F
:102E500095F9012002BD00001C4801881C4A0A4067
:102E6000802149001143018001881A4A0A4040210B
:102E700011430180704730B40022144B1C88164D5A
:102E80002540C000182404402C431C801888134C93
:102E900004404807400F20431880042101205C882B
:102EA0002406640E04420BD05C8804435C805C887A
:102EB0002406640E0442FAD09C88A405A40D1219BD
:102EC000491EECD11004800C30BC70470007005044
:102ED000FFFC00003FFF0000E7FF0000F8FF0000DC
:102EE000704700000121C206D20E9140964A400967
:102EF00080001150704772B6FEE7012000E002200A
:102F00009149086091490860BFF34F8F70470420D2
:102F1000F6E70820F4E71020F2E72020F0E7402051
:102F2000EEE78020ECE780204000E9E78020800089
:102F3000E6E78020C000E3E780200001E0E7802092
:102F40004001DDE780208001DAE78020C001D7E77B
:102F500080200002D4E781B001007D480068009025
:102F600000208A1E1E2A04D2009889004018802161
:102F7000405801B0704781B0754B1B680093831EA9
:102F80001E2B06D28000009B195000990818802142
:102F9000425001B070471CB504006D4800680090B5
:102FA000A01E1E2812D2200000F026F8A000102C2F
:102FB00004DB684909184039096800E06649009A4D
:102FC00011500021009A10188022815013BD10B5B5
:102FD0000400103810280ED2103C40B2FFF782FFD8
:102FE0000120E106C90E88405C4964B26209920082
:102FF0008850BFF34F8F10BD0100103910290BD23C
:1030000010380121C206D20E9140504A40B2400908
:1030100080001150BFF34F8F704701001039102905
:103020000BD210380121C206D20E9140464A40B25E
:10303000400980001150BFF34F8F704701001039D5
:1030400010290BD210380121C206D20E9140444AF9
:1030500040B2400980001150BFF34F8F704702000B
:10306000103A0F2A00D9704710B41038C200182344
:103070001340FF249C40E2438907090E994043B264
:10308000002B04D537481B071B0F083B00E03648D0
:103090009B089B00C01803681A401143016010BCD4
:1030A000704770477047FEB50100002700200029D7
:1030B00048D02E4A1288D208D20743D4EFF31080AA
:1030C000019072B62A48294A1080BFF34F8FBFF390
:1030D0006F8F00229300F858C85008008030C75006
:1030E000521C9300FC58CC50C750521C9300FC5803
:1030F000CC50C750521C9300FC58CC50C750521CA7
:10310000102AE7DB009110240D464035194E30009F
:1031100040380068286080202F50E0B2FFF76CFF35
:10312000641C361D2D1D202CF1DB104800994160D8
:1031300011490180BFF34F8FBFF36F8F019880F368
:103140001088012003B0F0BD80E200E080E100E0E3
:1031500024010040C45C0000F72E000000E100E004
:1031600000E200E01CED00E000E400E0200100408F
:1031700004A50000045D000005A5000038B50500A9
:103180000C001420FFF7E7FE102D03DA002801D011
:10319000A900445031BD38B5134CA588EDB2102DAF
:1031A0000CDA1420FFF7D7FEA9004258110003D013
:1031B000016C2800904700E02580A58031BD10B546
:1031C00004000FD0208881235B0098420AD1002997
:1031D00008D00A640A0005491420E36898471420BF
:1031E0006169884710BD0000BA04005097310000A3
:1031F00080B5002802D09649486001BD0121D22047
:10320000FFF78EFD01BD80B591494968002908D0BE
:1032100049684A78012A08D100224A7000F084FEE9
:1032200001BD0121F120FFF77BFD01BD80B5672ABB
:103230000AD0682A0ED0692A08D06A2A08D06C2AD7
:103240000AD06F2A0CD001BD012006E0022004E064
:10325000032002E0042000E00520FFF73CFD01BD53
:103260000C210F20FFF724FD01BD7047012B00D07A
:103270007047F8B514000700754D68684068047021
:10328000BE4E21003800326852699047002832D083
:1032900068688168AA312302F02212011A40B84BF3
:1032A000CD8E1D401543CD860068CE3005882B405D
:1032B0001A430280601E052811D801A2125C9744AF
:1032C00004080C10141808880AE0488808E0888868
:1032D00006E0C88804E0088902E0488900E088899F
:1032E0008004800C641EC1214C43011B89B238004C
:1032F0003268526A9047F1BD38B5A24D686800281F
:103300000BD000244068047300F058FF68684068E0
:10331000012101730471417004E00121E4204000A7
:10332000FFF7FEFC002032BDF8B506001D00002EA0
:1033300000D186E00F0000D183E0454C6068002892
:1033400000D17EE000214068017300F037FF00F0FB
:103350002DFF00286ED168463900042200F0C0FF1E
:103360006846C078000965D1FFF7CBFCFFF7D1FCB8
:103370006D1E052D4AD801A0405D8744041A2A42DB
:103380005C7668464378032003221A409D08032197
:1033900029401B09184037E0684640780321032282
:1033A0000240830819402EE068464178032003223A
:1033B0000A408B08032119406B469B78184023E094
:1033C00068464178032003220A408B0803211940F4
:1033D0006B469B789B08184016E0684641780320AE
:1033E00003220A408B08032119406B469B781B0976
:1033F000184009E068464078032103220240800813
:103400000140684680788009FCF785FEFCF7AAFE3B
:1034100000280FD0684640780007800F04D00228AB
:1034200004D003D3032805D1012100E0022130009C
:1034300000F020FE60684068012101730171417055
:1034400003E00121BD48FFF76BFC0020F2BD000046
:10345000D40B0020F8B506001D00002E00D187E037
:103460000F0000D184E0474C6068002800D17FE065
:1034700000214068017300F0A1FE00F097FE0028D3
:103480006ED168463900042200F02AFF6846C078F1
:10349000000965D1FFF735FCFFF73BFC6D1E052DDC
:1034A0004AD801A0405D8744041A2A425C766846E7
:1034B0004378032003221A409D08032129401B0959
:1034C000184037E068464078032103220240830811
:1034D00019402EE068464178032003220A408B08F9
:1034E000032119406B469B78184023E068464178D9
:1034F000032003220A408B08032119406B469B7866
:103500009B08184016E068464178032003220A40D1
:103510008B08032119406B469B781B09184009E072
:103520006846407803210322024080080140684633
:1035300080788009FCF701FEFCF714FE00280FD00C
:10354000684640780007800F04D0022804D003D3D7
:10355000032805D1012100E00221300000F08AFD9E
:10356000606840680121017302220271417003E02A
:103570000121AB48FFF7D4FB0020F2BD0000002082
:10358000FFF00000D40B00207CB51D00002842D0C5
:103590000E0040D0A34C606800283CD00021406859
:1035A000017300F00BFE68463100042200F098FE23
:1035B00000F0FCFD002826D16D1E052D23D801A0AA
:1035C000405D8744040E141E283268464078800609
:1035D000800F14E06846407810E0684680788007E5
:1035E000800F0CE0684680780007800F07E068468F
:1035F00080788006800F02E0684680788009032882
:1036000001D1FCF7ABFD6068406801210173022223
:103610000271417004E00121D9208000FFF780FB96
:10362000002076BDFEB500276C46277000287CD0B0
:103630000D007AD0140078D07A484068002874D001
:103640004068077300F0BAFD01A82900042200F0C9
:1036500047FE0125FC26E078304001210143E1705E
:1036600000F0A4FD002835D101A88078C00901A888
:103670001CD1C078000931D001A84078CC2818D2DC
:10368000400801A9487041000091664949688A686C
:10369000009BD218528A120AA2708A68009BD21824
:1036A000528A627049680D7388601BE04078CC28AC
:1036B00005D3E078064002203043E0700EE0A770AA
:1036C0006070400801A948705649496849680D73FF
:1036D000886003E0E07803210143E17001A8C0782D
:1036E00000091BD0FFF715FBE178F7220A40C00064
:1036F0001043E070FFF705FBE1780B220A408100E0
:1037000011436846007A00010843E0708007800F8B
:10371000022801D1A770677069460D704148406862
:10372000406808210171457003E00121BD48FFF7A1
:10373000F7FA6846007803B0F0BD000056020000BA
:10374000FEB50027002863D00D0061D014005FD0C3
:103750003448406800285BD000F030FD68462900FE
:10376000042200F0BDFD0125FC26E0783040012157
:103770000143E17000F01AFD00281FD1294840687C
:1037800041680A79082A13D10A7B012A10D16A46B6
:103790009678806889684900401831025278114350
:1037A000418200F0D1FDA67068464078607009E063
:1037B000E078064002203043E07003E0E078032127
:1037C0000143E1706846C07800091AD06846067A5D
:1037D000FFF79FFAE178F7220A40C0001043E0703B
:1037E000FFF78FFAE1780B220A4081001143300184
:1037F0000843E0708007800F022801D1A77067702E
:10380000012708484068406809210171457003E0BC
:103810000121B948FFF784FA380003B0F0BD000079
:10382000E6020000D40B0020FEB500236D466B704D
:10383000002860D000295ED016005CD0AF4F7868B9
:10384000002858D04068037301A8042200F048FD06
:103850000124FC25F078284001210143F17001A8E2
:1038600080780007000F6946087068460078B070DD
:1038700001A84078707000F099FC002816D101A8CA
:1038800041786846007800F05BFCC721C943401AC4
:1038900006D0C6380AD0401E0CD10920FFF71BFA0B
:1038A000F078054002202843F07003E0F07803210F
:1038B0000143F1706846057A280016D0FFF729FA0F
:1038C000F178F7220A40C0001043F070FFF719FAB0
:1038D000F1780B220A408000104329010143F17066
:1038E000796849680C7369464C70786840680A21A9
:1038F0000171447004E001219820C000FFF710FA24
:103900006846407803B0F0BDFEB500236C462370D6
:10391000002800D17EE00D007CD014007AD0774FD3
:103920007868002876D04068037300F047FC01A84F
:103930002900042200F0D4FC0125FC26E078304068
:1039400001210143E17000F031FC002837D101A8CA
:103950008178C806C00E17282BD2C90918D101A931
:10396000C97809092FD001A94A78FE21114001AA7E
:103970005170C54A800010584118786842689160BB
:103980000A88120AA27009886170406805731EE0F7
:10399000A07001A94A786270FE21114001AA5170FD
:1039A0007A685268B84B80001858401890601573B8
:1039B00009E0E078064002203043E07003E0E07860
:1039C00003210143E17001A8C07800091CD0FFF772
:1039D000A0F9E178F7220A40C0001043E070FFF739
:1039E00090F9E1780B220A40810011436846007A81
:1039F00000010843E0708007800F022802D10020F8
:103A0000A070607069460D70786840680B21017184
:103A1000457003E001219D48FFF782F96846007870
:103A200003B0F0BDF5030000FEB5002500285BD013
:103A30000E0059D0140057D0C04F7868002853D0DA
:103A400000F0BCFB68463100042200F049FC01266E
:103A5000FC20E278024001211143E1707A6852684B
:103A600013790B2B16D1127B012A13D100F09EFB88
:103A700000280CD168464078694689780A020243DA
:103A80007B685B689B681A80A170607006E0E078D4
:103A9000032101E0084002210143E1706846C0783B
:103AA00000091BD06846057AFFF733F9E178F72261
:103AB0000A40C0001043E070FFF723F9E1780B22C1
:103AC0000A408100114328010843E0708007800FFD
:103AD000022802D10020A07060700125786840683B
:103AE0000C210171467004E00121B720C000FFF7EE
:103AF00017F9280003B0F0BD5F040000D40B0020CC
:103B0000FEB500270025002800D1B5E00E0000D149
:103B1000B2E0140000D1AFE088484068002800D12E
:103B2000AAE000F04BFB68463100042200F0D8FB0D
:103B30000126E078FC21014001200843E07068463E
:103B4000C078000900D190E000F030FB00286DD172
:103B5000002C6FD068464078C006C00E12D00128F5
:103B600016D002281AD0032825D0042830D01428D3
:103B70003BD015283FD0162843D01E2847D01F28F9
:103B80004BD050E0BF484188090AA170408848E006
:103B9000BC480188090AA170008842E0FFF7A2F83A
:103BA000009068460088000AA070FFF79BF800901C
:103BB0006846008835E0FFF79AF80090684600886C
:103BC000000AA070FFF793F800906846008828E08C
:103BD000FFF792F8009068460088000AA070FFF78F
:103BE0008BF80090684600881BE0A7480188090A06
:103BF000A170008815E0A4484188090AA170408896
:103C00000FE0A148C18A090AA170C08A09E09F4853
:103C10000188090AA170008803E09D480088010A14
:103C2000A170607006E0A770677003E0E078032180
:103C30000143E1706846057AFFF76BF8E178F722F7
:103C40000A40C0001043E070FFF75BF8E1780B22F8
:103C50000A408100114328010843E0708007800F6B
:103C6000022801D1A7706770012534484068406878
:103C70000D210171467003E00121AA48FFF750F8B9
:103C8000280003B0F0BD0000205C00004B050000E0
:103C9000F9B581B000270026002848D00D0046D095
:103CA000140044D025484068002840D000F086FA2F
:103CB00068462900042200F013FB0125E078FC216E
:103CC000014001200843E07000F070FA002827D17D
:103CD0006846C07800091FD06846067A8078A070D0
:103CE000684640786070FFF714F8E178F7220A40E0
:103CF000C0001043E070FFF704F8E1780B220A409F
:103D00008100114330010843E0708007800F0228D2
:103D100001D1A770677001260321019800F0AAF96C
:103D20000648406840680E210171457003E001219A
:103D3000AC48FEF7F5FF300003B0F0BDD40B002017
:103D4000F9B583B000276B461F700398002800D197
:103D50008FE00D0000D18CE0140000D189E0A24872
:103D60004068002800D184E000F028FA01A829006A
:103D7000042200F0B5FA0125FC26E078304001214C
:103D80000143E17000F012FA002847D101A8407801
:103D900055283AD1A77001A88078607001280CD00E
:103DA000042811D0082819D010281AD020281BD098
:103DB00040281ED0802835D021E002210398AB4A4C
:103DC0001268926990472DE0A948018804220A43AD
:103DD0000280418810220A43428023E000F0DFFA8B
:103DE00020E000F0E0FA1DE0AE48018801220A431D
:103DF00003E0AC480188AC4A0A40028012E0E07857
:103E0000064002203043E0700CE0E07806400220DB
:103E10003043E0700920FEF75EFF03E0E078032105
:103E20000143E17001A8C07800091BD06846067CF8
:103E3000FEF76FFFE178F7220A40C0001043E07000
:103E4000FEF75FFFE1780B220A4081001143300149
:103E50000843E0708007800F022801D1A7706770C7
:103E600069460D706048406840680F2101714570D7
:103E700003E001218D48FEF753FF6846007805B046
:103E8000F0BD0000F40000480C020050A00B002020
:103E900080000000F8B50C003ED0534D6968002941
:103EA0003AD01F0038D0060000F0A0F868684068DB
:103EB000C078012802D0022804D007E02000FDF7D6
:103EC00035FC09E02000FEF7C1FD05E000213000CF
:103ED000664A126892699047069EFEF712FFA17922
:103EE000BF220A4080011043A071FEF712FFA179A2
:103EF0004906490EC0010843A07168684168897885
:103F00000907090F32010A43E2710821397040683C
:103F10008178491C817003E001216548FEF700FFAC
:103F20000120F2BD5C060000FEB56249496889685F
:103F3000A222895A0A06520F5F49022A01D0042A96
:103F400047D101250A8812092A4203D00A885B4B0F
:103F500013400B808A88D2092A4236D18B8949893D
:103F6000574A8A1801925A1A00920024019A002A8C
:103F700002DD0126002701E00026D70FF61B724361
:103F8000009E002E01DD002701E00025F70FED1B4C
:103F90006E43172E10DA994203DA172A09DA491C00
:103FA00004E08B4205DA172A03DA491E89B200F0D1
:103FB000B3FE4048047012E03E490878052802D25A
:103FC000401C08700BE0002000E00020FEF783FE9C
:103FD00005E0012A03D10888102202430A8003B0B9
:103FE000F0BD0000CD060000D40B002070B5314CB0
:103FF0006168002938D08A681500A2352988090629
:10400000490F032901D004292ED12B490B881B0904
:10401000DB0703D50B88294E1E400E800B8C498987
:10402000ED88AD04AD0C9D4209DA128AAA189A42B5
:1040300011DB491C89B200F06FFE00200FE0AB429B
:1040400012DA128AAA1A9A4205DB491E89B200F0D6
:1040500063FE002003E06078052802D2401C6070F7
:1040600070BD0A20FEF737FE70BD00000000002082
:104070000801004010B50F4A5268002A0CD00028F1
:104080000AD000235468A3705268D17001210D4AF0
:1040900012689269904710BD01210B48FEF740FE5F
:1040A00010BD000000040050FEFF00005407000097
:1040B000A1070000D40B002002020050EFFF000017
:1040C00000FDFFFF00000020BB08000010B5012428
:1040D0000021002809D0734A11705170906090201F
:1040E000C005506000F06EF804E0002406218E2028
:1040F000FEF716FE200010BD9020C005704710B5D9
:10410000684CA068002816D06068002813D060783A
:10411000012804D0042805D0082806D010BD00F0DE
:1041200051F804E000F076F801E000F09BF8002080
:104130002070607010BD0621D020FEF7F1FD10BD8B
:1041400030B4020000240020564B1D78022D02D10D
:104150000120C04328E0022A06D1662921D1012D81
:104160001ED0012119701FE0012D19D1012A04D0A0
:10417000042A08D0082A0CD014E0AA2911D102215F
:10418000197001210AE033290BD102211970042191
:1041900004E0552905D1022119700821597003E066
:1041A000C720C0431C705C7030BC70473D4800782D
:1041B000022801D1012070470020704700203949B2
:1041C0000870704710B53749886800281CD04968C6
:1041D000002919D002001A230C8814804C885480BE
:1041E0008C889480CC88D480083108325B1EF3D14F
:1041F000CA21425AC62100F031FF012809D0082106
:104200000F20FEF755FD10BD0621FF209430FEF76C
:1042100087FD10BD1CB5234CA16800291CD0626825
:10422000002A19D0002001900090D0231E4800F0F1
:10423000EDFF012802D00F210D200AE06068002365
:10424000CA21425AC62100F009FF012809D00F21D6
:104250000620FEF72DFD13BD0621DF204000FEF7EE
:104260005FFD13BDE0B50F488168002913D0406899
:10427000002810D000220192009204230200CC32C8
:10428000CC31094800F0C2FF012809D00F210D20D0
:10429000FEF70EFD04E00621EF204000FEF740FD92
:1042A00003B000BDC00B002009A5000070B4103A97
:1042B00003D378C9103A78C0FBD2530701D318C989
:1042C00018C001D508C908C0D20704D30B880380E1
:1042D000891C801C002A01D50B78037070BC7047C4
:1042E0008B0701D18307E1D0124205D00B78491C1E
:1042F0000370401C521EF9D17047000010B5012414
:104300000021002803D0124A5060117004E00024FC
:1043100008216220FEF704FD200010BD10B50C4CF2
:10432000606800280BD0217801290CD10300CA3322
:104330000022C62100F092FE0020207010BD08214E
:104340008520FEF7EDFC10BD012001490870704783
:10435000E40B002038B52A48018803220A43028072
:10436000284D280001F068F8002110206A6A904763
:10437000254C0022211D280001F09BF80020207010
:104380002249012001F074F8002221002C3128007C
:1043900001F0CEF81E49032001F0A9F831BD01203B
:1043A00019490870704780B51A4801881A4A0A40AE
:1043B0000280012001F059F81848018801220A43BF
:1043C000028001BD10B5104C2078012816D101F0F3
:1043D00049F812480188104A0A40028001880222E6
:1043E0000A4302800121028892080A42FBD109484F
:1043F00002881143018030BF0020207010BD0000F2
:1044000000010040285E0000AC0A002021440000AA
:104410002344000000050050FEFF0000000400508F
:10442000704780B50F210320FEF742FC01BD00005C
:10443000F8B50C0050D0C84E308A25004C352862A3
:104440000004F189084328626F20205C0007800E79
:1044500020189C214758390027D0DC214058009073
:104460004C20235C2200703221006C312000B847C0
:1044700001281ED120007030001D297A401A708258
:1044800020007030001D297A401A000CB0820420F0
:10449000297A401AF0820C20B087F08630880421F7
:1044A000014331800120687307E06621200000F09D
:1044B000BCF90420687301202875A8786F21615C1D
:1044C0000909884203D26E21200000F0AEF90020D5
:1044D0008B22A05497216054F1BDF8B50D005BD03C
:1044E0009D4E308A2C004C3420620004F189084330
:1044F00020626F20285C010903D04C22AA5C8A420A
:1045000037D10007800E28189C214758390027D042
:10451000DC21405800904C202B5C2A00703229008E
:104520006C312800B84701281ED128007030001DCA
:10453000217A401A708228007030001D217A401ABA
:10454000000CB0820420217A401AF0820C20B0873F
:10455000F08630880421014331800120607316E029
:104560006621280000F061F90420607301202075A5
:104570000DE00420607301202075A0786F21695C34
:104580000909884203D26E21280000F04EF900206C
:104590008B22A85497216854F1BD002907D001202F
:1045A0006022885408009A300178491C01707047D5
:1045B00010B50C001BD00120BD490A8802430A80B7
:1045C0000A88022313430B800A88202313430B809D
:1045D0000A88402313430B80602160546C21200023
:1045E00000F023F920008B3000210170017310BD11
:1045F00038B50C0024D0AE48018801220A4302805D
:10460000018820220A430280018840220A43028056
:1046100025008B352878012805D16821200000F07D
:1046200004F900202870287B012805D16A21200088
:1046300000F0FBF8002028736921200000F0F5F855
:1046400031BD080000D1704780B599490A8801231F
:1046500013430B800A88202313430B800A884023CE
:1046600013430B80672100F0E0F801BD10B50C008A
:104670001BD039480188C64A0A400280418802227C
:104680000A4342802000513041780170012120000E
:1046900000F0FFFA20008A300178012901D1417031
:1046A00010BD6821200000F0C0F810BD10B50C004E
:1046B00018D020005130417801700121200000F015
:1046C000E8FA0221200000F0E4F8200096300021F2
:1046D00001710178012901D1417010BD6A212000CA
:1046E00000F0A3F810BD002911D0AA4802220287C9
:1046F000028804231343038088310A884284C28CD1
:1047000009888A4203D3418840220A434280704785
:1047100070B50C001ED0104E0C203087250050358F
:1047200001202874687A042803D16D21200000F04C
:104730007CF8A87A401CA87204205021615C0129F1
:1047400001D1687270BDA97869706872308890492B
:104750000140318070BD0000020200505448012227
:1047600043889B09134200D1704710B4002928D018
:10477000038802241C430480923100E000BF838C34
:104780000C88A41EA342F9D383881343838000BFFF
:1047900000BF00BF00BF00BF00BF00BF00BF8388D5
:1047A000134383800F23438784886408144205D011
:1047B0008A718188944A0A40828002E000228A71CC
:1047C000838610BC704770B50C0090480F2141865D
:1047D000002C1CD05021615C022918D1260098368B
:1047E00000253178002911D10188894A0A400280C8
:1047F0000188884A0A4002800A21418609214186AF
:104800000121200000F045F859216554357070BD34
:104810008148C2880F230383002905D00088904275
:1048200002D301209822885470470A00416C002965
:1048300000D1704710B54C68210002D0836C7749D5
:10484000A04710BD0A00416C002900D1704710B587
:104850008C68210002D0836C7049A04710BD416C68
:10486000002900D1704710B50C69210004D0836C79
:104870005921425C6949A04710BD416C002900D113
:10488000704780B54B69190002D0826C6349984724
:1048900001BD1CB50B00416C002908D0CC6821007B
:1048A00005D0816C00919A21425C5C49A04713BD00
:1048B0000402005010B400211A4A5186584BD38587
:1048C0005388584C1C4080235B002343538013883B
:1048D0002F4C1C401480538840241C43548050307B
:1048E00001704172C1610162818AD183C08A5084A2
:1048F0000120D0860420D0860720D0860820D086CC
:1049000010BC7047C3490522CA800A804C22825CD1
:10491000521E7C23C2520820C8800720C880022073
:10492000C88070470202005010B40021194A518615
:104930003B4BD38553883B4C1C4080239B00234337
:1049400053801388B44C1C401480538840241C436B
:10495000548003004C3301241C7103245C7399625E
:10496000D9624C21405C401E1886188F1084D88E66
:10497000198E5B8F59434018D0830520D0860720BD
:10498000D0860820D0860220D08610BC7047000058
:10499000FBFF00000202005030B4A04920224B88E7
:1049A00013434B8000234B864B88C024A4001C4338
:1049B0004C801D4B0C881C400C804C8840252543A6
:1049C0004D80040090342588EB184B84503002232E
:1049D0000370437260880F38C883A0880884C88831
:1049E0000243CA80C8880B4A0240CA800C48C88566
:1049F0000920C8860A20C8860620C8860320C886E3
:104A00000720C88630BC7047FEFF00000802005037
:104A1000DFFF0000EFFF0000220200507C5C00007E
:104A2000FF0F0000FFFC0000FBFF0000F8B50600D0
:104A3000002700207A4BCB180093002E00D1E8E02D
:104A4000150000D1E5E02A88FF231B1D9A4200D003
:104A5000DFE06A68002A00D1DBE0FF2228329142C1
:104A600000D2D6E0009AD20700D5D2E0A44A12883C
:104A7000002A00D0CDE08AB2310000F073FD34008E
:104A80004C34E87A2073687A20729E484780697AAD
:104A90004A00A97A09011143227B92010A43E97B6A
:104AA00009031143984A0A43428003210180018986
:104AB000964A0A408021490011430181A97821705A
:104AC000A97861704C21715C8185E878002801D05B
:104AD000102800D30F20A0702920285C20712920E5
:104AE000285C6071677327612920285CA071688A3F
:104AF0002083A88A6083288BE086A88B2087E88B98
:104B00006087688BA0872020285C8A217054300041
:104B10008C309A3171180160297A032908D3009BDF
:104B2000032B05D33F2901D23F2B02D23F2100E0C6
:104B300001216186698C002900D14021C180C18892
:104B4000AA8C002A01D0891800E01C310181E98C6F
:104B5000062900D27D2181802821695C81726781CC
:104B600032003100686800F028FD002112206A68D8
:104B7000526A9047A87D012801D1654901E0654945
:104B8000012000F0F9FCB149022000F0F5FCB04929
:104B9000032000F0F1FCAF49042000F0EDFCAE4929
:104BA000052000F0E9FCAD49062000F0E5FCAC4929
:104BB000072000F0E1FCAB49082000F0DDFCAA4929
:104BC000092000F0D9FCA9490A2000F0D5FCA84929
:104BD0000C2000F0D1FCA7490F2000F0CDFC20797B
:104BE000012802D0022804D00BE03000FFF79CFE21
:104BF0000AE03000FFF7D0FE00213000FFF749FE49
:104C000002E03000FFF756FE21793000FFF71AFE70
:104C10000120F2BD38020050FBFF000002020050EC
:104C2000DCFEFFFF03000020002B07D0012905D187
:104C3000002A02D002A010605360012070470000DB
:104C400000010000F94C0000194D0000A14D0000CA
:104C5000B94D0000ED4C0000F34C000010B404000E
:104C60000020002C08D0102A06D2900020189C2288
:104C70008150DC214350012010BC7047030000200C
:104C8000002B05D08E2040001818016042600120E2
:104C9000704770B504000E00503000214278502358
:104CA000E35C9A4201D0012500E00025C170407804
:104CB000012802D0022804D00BE02000FFF734FEC8
:104CC0000AE02000FFF768FE00212000FFF7E1FD69
:104CD00002E02000FFF7EEFD002E06D0002D04D0EC
:104CE0005020215C2000FFF7ADFD70BD9E4800887C
:104CF00070479E48008870479D48008870470000B4
:104D00004C0200500002005009030000FFF80000B0
:104D1000DB4400003144000002000020002A02D0E1
:104D2000562011520120704702000020002A00D1B5
:104D3000704710B48024A401A14202D26420115211
:104D4000012010BC704702000020002A00D17047EB
:104D500010B48024A401A14202D282201152012069
:104D600010BC704702000020002A00D1704710B428
:104D70008024A401A14202D286201152012010BC3D
:104D8000704702000020002A00D1704710B4802430
:104D9000A401A14202D284201152012010BC70470C
:104DA00002000020002A06D080239B01994202D2F3
:104DB000662011520120704702000020002A06D010
:104DC00080239B01994202D2882011520120704712
:104DD0007CB58E21490041180E6804004C34002E29
:104DE0002DD005008035496801914C21415C00912E
:104DF0002B00628EE968B047012825D1227AE96844
:104E00005C482E788B199B1A03802B78C918891A55
:104E1000090C41802978891AC9B28180EFF3108189
:104E200072B6627B032A05D1012262730C2242858D
:104E3000828401E00020607381F3108873BDA17942
:104E400061710121FFF725FF73BD0000E7460000F7
:104E50009B450000B14500006D460000AD460000D6
:104E6000F1450000434600005D470000C7470000D1
:104E7000114700001148000070B505005BD02C0000
:104E80004C34607B401E01284BD9801E02D0401E4E
:104E900004D021E02800FFF79BFF42E020790128A1
:104EA00008D12800FFF7E9FC2800FFF72BFD0320BD
:104EB000607336E0002600280CD12800FFF7CFFCF5
:104EC00026622D480121818704218187072181875E
:104ED00008218187667324E0617827484C22AA5C08
:104EE000914201D021704185217B02881206920FE8
:104EF0008A420BD00288214B13408901C0220A400C
:104F00001A43028001212800FFF7C3FEE07901283F
:104F100003D060792179884203D001212800FFF76E
:104F2000B8FE6189002906D0134842898A4202D01E
:104F300041810020608170BD10B40021104A91862B
:104F40001388104C1C401480002807D041648164F1
:104F500050308278027082784270417210BC704783
:104F600009480088704700000E0200502A020050D5
:104F70000C02005014020050020200503FFF0000DB
:104F800000020050FEFF0000280200500200002036
:104F9000002A07D04D3253788B4203D30B0001D047
:104FA00011700120704702000020002A02D0582012
:104FB000115401207047020000230020002A09D06C
:104FC0005120105C884200D10123100051308370C1
:104FD000017008467047010000220020002900D11E
:104FE000704710B4EFF3108372B66020085C602441
:104FF0000A5583F3108810BC704703000020002B73
:1050000000D1704760B400290CD00D88822676004C
:10501000B54207D15D6CA94204D0002D02D159647C
:105020009A64012060BC7047020000230020002A1F
:1050300000D1704710B4546C8C4202D15364936415
:10504000012010BC7047000012480188124A0A4033
:1050500002800188114A0A4002807047F0B400249F
:1050600003250F4EB7892F42FCD032810A0CF28003
:10507000B1803080000C7080B0892840FCD0002BBB
:1050800001D0F1891980022800D001242000F0BC51
:10509000704700000A020040F7FF0000F8FF000020
:1050A00000020040FEB4574A00245481FF24240229
:1050B00004400D0002D05081491EFCD10999089D81
:1050C000079E6F463B706B461B7827001F439780F7
:1050D00023003343D3805081508123002B4393819D
:1050E00023000B43D3815081694609790C43148016
:1050F000508103B0F0BC7047F2B584B004001500D5
:105100001F0000F083FA00F06BF8012801D00020A6
:105110002DE00C990B9B0A9E68468581049D002218
:105120000292019200913200E1B2601C80B2FFF75E
:10513000B9FF684680892880BFF34F8F32480188C5
:10514000C907FCD4012E05D06F80BFF34F8F0188B3
:10515000C907FCD4002404810188C90704D4C08D88
:10516000002801D1012401E000F03AF8200005B048
:10517000F0BDF0B583B007000C0015001E0000F074
:105180002FF8012801D0002028E000210291019190
:10519000009100230422F9B2781C80B2FFF782FF4D
:1051A0002580BFF34F8F208808990880BFF34F8F69
:1051B0006680BFF34F8F608809990880BFF34F8FD7
:1051C0001148002404810188C90704D4C08D002837
:1051D00001D1012401E000F003F8200003B0F0BD8C
:1051E00009480188C90707D5A5210902C181491CC1
:1051F000C1810188C907FCD4002141860721C185EE
:10520000012070470005004002050040F8B588B055
:10521000854CA04200D0EAE00793002B00D1E6E0E5
:10522000980700D0E3E00691002900D1DFE00C46AA
:1052300080204000B82109066318834200D2D6E0DE
:105240007A4B079D6419E418844200D2CFE016001F
:1052500000D1CCE0920700D0C9E07118814200D3A0
:10526000C5E07119C918814200D3C0E0704D0E9994
:105270000F9A6D4F06980378407800021843069BFA
:105280009B78069CE47824021C436B469C82002396
:105290006C46E360236103240EAB19700FA90A70FA
:1052A0006946C88204A80190801C00900023002257
:1052B00031003846FFF75DFF012800D093E003A8D6
:1052C0000190801C00905B4B1A4631003800FFF7BC
:1052D00050FF012800D086E0FCF726FCB62800D25B
:1052E00081E06846C0896946498ACA4392B29042C1
:1052F00007D1684680896946098ACA4392B29042BA
:105300000FD00FA8007802900EA80078019001201D
:1053100000900023002231003800FFF7EDFE012845
:1053200061D1FCF701FCB6285DD300F06FF9FFF7FF
:1053300057FF012857D10020029001900FA8007854
:1053400000900EA8037802220921781CFFF7AAFE1C
:105350006846C08A3080BFF34F8F2888C007FCD4CE
:105360006846808A7080BFF34F8F2888C007FCD4BE
:10537000002028812888C00733D4E88D002830D148
:1053800003A80190801C00906846838AC28A31007D
:105390003800FFF7EEFE012825D12888C00720D469
:1053A000E88D00281DD16846C0896946C98A8842AF
:1053B00019D1684680896946898A884213D10EA826
:1053C00001780FA80278240611D0361D0698001D1A
:1053D00006900798001F079000D04BE7012009B006
:1053E000F0BDFFF7FDFE641E200600D05AE7002046
:1053F000F5E70000092801DB00207047A52109021C
:105400000B4A1388DB0705D5D1814B1CD381138848
:10541000DB07FCD4002353860723D38503401943BD
:10542000118201207047000009A50000FFFFFFB7AF
:1054300002050040FFFF000038B504000FD02088AF
:105440008121490088420AD1054D8A1E2900002089
:1054500000F088F8280061688847A06A804731BD5D
:10546000200900201D49088070471D4908807047A9
:1054700038B505000C001720FDF76DFD092D03DA86
:10548000002801D0A900445031BD38B5144CA5887E
:10549000EDB2092D0CDA1720FDF75DFDA900425889
:1054A000110003D0416A2800904700E02580A580C4
:1054B00031BD10B504000FD0208881235B009842D5
:1054C0000AD1002908D04A620A0006491720E36879
:1054D000984717206169884710BD000038050050C3
:1054E0003A0500508B5400001B490880704738B5BE
:1054F00005000C001020FDF72EFD0A2D03DA002810
:1055000001D0A900445031BD38B5144CA588EDB286
:105510000A2D0CDA1020FDF71EFDA90042581100DB
:1055200003D0816A2800904700E02580A58031BD26
:1055300010B504000FD0208881235B0098420AD167
:10554000002908D08A620A0005491020E3689847BC
:1055500010206169884710BD380100403A010040C1
:105560000955000003000800110000D1704780B504
:105570001A00FDF7E1FB01BD38B505000C00122053
:10558000FDF7E9FC102D03DA002801D0A9004450F2
:1055900031BD38B5134CA588EDB2102D0CDA1220B0
:1055A000FDF7D9FCA9004258110003D0016C280076
:1055B000904700E02580A58031BD10B504000FD0D4
:1055C000208881235B0098420AD1002908D00A6410
:1055D0000A0005491220E36898471220616988474C
:1055E00010BD00003A020050935500000D480E49CE
:1055F00041800188FF2212020A40172111430180D5
:105600000A48018880220A430280704708488021A6
:10561000C905088070478020C00506490180491CE3
:105620000180704704000040204E00000801004047
:1056300002A5000001A50000F8B590B006000D001D
:105640009A4C03AA0121200008302368DB689847A0
:10565000012801D1039860600195A9680800A23073
:10566000C28F120A0F250F23134003D0082B01D23B
:10567000154000E00725C2889204D20D0A82691EF7
:10568000052912D801A2525C974400BF060A0E12E7
:10569000161A01890AE0418908E0818906E0C1897A
:1056A00004E0018A02E0418A00E0818A8F04BF0C95
:1056B000029603218288560B0E40008801406846FE
:1056C000017005A87A492C22FEF7F0FD05A8857027
:1056D0000299069169460978C17201998968A231D7
:1056E0004A88520B02738A88D20B427307220B88B6
:1056F0005B0A134083730B881B069B0E1A40C27310
:105700000674720081A39B5A43824B88DB04DB0C36
:1057100083826D1EC1235D437B1B03838B88DB0467
:10572000DB0C4383C9888904890C81837DA16B4686
:105730001B785B00C95AC18378A1895A418400BF94
:1057400074A1895AC18405AAAA2149002000083001
:1057500023685B689847050000D192E0002200BFF3
:1057600064A12000083023681B6C9847050000D115
:1057700087E0504E002300223100200008302768C7
:105780003F6BB847002301224B49200008302768AF
:105790003F6BB847002302224849200008302768A1
:1057A0003F6BB847002303223100200008302768F0
:1057B0003F6BB84700230422414920000830276886
:1057C0003F6BB847002305223100200008302768CE
:1057D0003F6BB847002306223100200008302768BD
:1057E0003F6BB847002307223100200008302668AD
:1057F000366BB04700230822324920000830266863
:10580000366BB047002309222F4920000830266854
:10581000366BB04700230A222C4920000830266846
:10582000366BB04700230B22294920000830266838
:10583000366BB04700230C2226492000083026682A
:10584000366BB04700230D2223492000083026681C
:10585000366BB04700230E2220492000083026680E
:10586000366BB04700230F221D4920000830266800
:10587000366BB04700221B492000083023685B6B61
:105880009847194801998968A222895A0906490F3F
:105890000129018802D110220A4301E0134A0A407B
:1058A0000280280011B0F0BD1148704700000020B0
:1058B000585E0000F9320000293300005534000022
:1058C00089350000253600004137000029380000E6
:1058D00009390000293A0000013B0000913C00001A
:1058E000413D0000953E000002020050EFFF000025
:1058F000B00B0020040100002D3200006B320000CC
:105900006D320000000000000000000031014E0276
:105910009C0431017D00BD003D017D004000800000
:10592000000140009100C000F100210110B5464C7B
:10593000FFF7BAFFA060FAF7BFFBE060FEF7DCFB01
:105940006060201DFDF754FCE0681230FEF7BEFBDE
:10595000002811D0E0681230FEF7D0FC00280BD0F0
:10596000FAF796FB002807D0201DFBF763FE441EC4
:10597000A441E443E40F00E00024FCF7B3FD002C55
:1059800003D10021BC20FDF7CBF910BD30B59FB08D
:105990002F4830490880FEF7DDFC62B6FFF726FE8F
:1059A00000F062F800F06CF8FDF756FAFBF716FE0F
:1059B000FDF736FA0320FFF71DFD002803D1002173
:1059C0008F20FDF7ADF9FFF73FFBFFF7AFFF00F0CA
:1059D00067F81E4C210084B068468C22FEF766FCF6
:1059E0000FBC00F086F8210084B068468C22FEF7D8
:1059F0005DFC0FBC00F08DF8134C211D16480068AB
:105A0000FFF71AFE002800D1FEE7FFF704FE03208F
:105A1000FFF76AFD114800882080114C114D2800C5
:105A20002168896B8847FEF7CDFC2800FDF7EBFB6A
:105A3000FAF744FBFEF763FBFEF770FCFCF732FF5E
:105A4000FFF7E4FDEBE70000A00B0020200A002098
:105A500061A500000E0100405C0100204C020050D6
:105A600000000020080000200448018801220A43A9
:105A70000280018802220A4302807047020000501F
:105A800005480188054A0A40022111430180018826
:105A90000C220A430280704700060050FCFF000001
:105AA00010B5394C00223949200000F09AF8022143
:105AB0001620626A90473648D02101810121028870
:105AC0000A430280022203881343038003880424CC
:105AD0001C430480038808241C430480838D1A43DC
